:100000000C9458000C9475000C9475000C947500B9
:100010000C9475000C9475000C9475000C949D055F
:100020000C9475000C9475000C9475000C9475007C
:100030000C9475000C9475000C9475000C9475006C
:100040000C9475000C9475000C9475000C9475005C
:100050000C9475000C9475000C9475006A066A0681
:100060007506750681068606860688068806880651
:1000700094065A065A066606B606B606C606C606AA
:10008000D606EA06EA06DA06DA06DA06EC06A60676
:10009000A606A206290729073907390749075D0778
:1000A0005D074D074D074D075F071907190715072E
:1000B00011241FBECFEFD0E1DEBFCDBF11E0A0E025
:1000C000B1E0EEEEFFE002C005900D92A838B10756
:1000D000D9F721E0A8E8B1E001C01D92A939B20723
:1000E000E1F70E94B4070C94F5070C940000EF921E
:1000F000FF920F931F93CF93DF93009701F18C0131
:10010000E12CF12CC0E0D0E00AC08FE99FE001971C
:10011000F1F700C0000021960C171D0741F00E9466
:100120004806813091F7EE24E394F12CEECFC7011D
:10013000DF91CF911F910F91FF90EF90089580E094
:1001400090E0F6CFCF93DF93CDB7DEB7C456D10999
:100150000FB6F894DEBF0FBECDBF0E94310584E616
:1001600091E00E9482048AE1E0E0F1E0DE01D396B2
:1001700001900D928A95E1F7FE01E35BFF4F88E164
:10018000DF01282F1D922A95E9F79AE1E2E3F1E0D9
:10019000DE01119601900D929A95E1F7FE017B9692
:1001A000DF011D928A95E9F7CE014A965C0193E33F
:1001B000892E912C8C0E9D1E96E1890E911C0E9419
:1001C00031050E9448068130D1F360E087E00E944B
:1001D0009103DE0111966D0160E080E00E949103C1
:1001E000C6010E9482040CE211E0E12CF12C0E9475
:1001F0004806813099F08FE99FE00197F1F700C040
:1002000000000150110999F7EA94EF28A1F0AFEF2F
:10021000CA1ADA0ACA14DB04F9F6D3CFAFE9BFE091
:100220001197F1F700C000000150110921F0EE24F0
:10023000E394F12CDCCF0E9431050E944806813006
:10024000D1F38E010D5C1F4F05C00F5F1F4F80164D
:10025000910699F360E080E00E949103C8010E943A
:100260008204BFEF25EA8EE0B15020408040E1F7E4
:1002700000C000000E944806813039F7A0CFEAE7AD
:10028000F0E0808187688083ECE7F0E08081806621
:100290008083089590917C00987F90937C0090914A
:1002A0007C00892B80937C0080917A00806480930D
:1002B0007A0080917A0086FDFCCF809179000895C4
:1002C0008DB18F7C8DB985E08A95F1F700006D9A2C
:1002D000759885E08A95F1F700006C9A749885E02E
:1002E0008A95F1F7000008956C9885E08A95F1F7FA
:1002F00000006D9885E08A95F1F7000008956D98EB
:1003000085E08A95F1F7000065990DC06C9885E04D
:100310008A95F1F700006C9A749885E08A95F1F758
:100320000000659BF3CF6C9808956C9885E08A95E2
:10033000F1F700006C9A749885E08A95F1F7000057
:1003400008951F93CF93DF93D82FC62F142F0E94A9
:100350007F010E94600187E013C06D9895E09A9537
:10036000F1F700006C9895E09A95F1F700006C9A0F
:10037000749895E09A95F1F70000DD0F815029F00F
:10038000D6FDEBCF6D9A7598E9CF6D9A759885E09B
:100390008A95F1F700006C9895E09A95F1F70000C6
:1003A0006C9A749885E08A95F1F700006D9895E055
:1003B0009A95F1F700006C98659B05C08DE691E079
:1003C0000E948204FFCF85E08A95F1F700006C9AC5
:1003D000749895E09A95F1F7000088E014C06D9A42
:1003E000759895E09A95F1F700006C9895E09A95CC
:1003F000F1F700006C9A749895E09A95F1F7000077
:10040000CC0F815021F0C7FFEACF6D98EACF6D98ED
:1004100085E08A95F1F700006C98659B05C089E737
:1004200091E00E948204FFCF95E09A95F1F70000D9
:100430006C9A749885E08A95F1F70000112351F0C9
:100440006C9895E09A95F1F700006D9885E08A9593
:10045000F1F70000DF91CF911F910895FC01662311
:10046000D1F14FEF460F50E04F5F5F4F480F591FDC
:10047000908128E016C06D9A759885E08A95F1F70D
:1004800000006C9885E08A95F1F700006C9A7498EA
:1004900085E08A95F1F700009081990F90832150B3
:1004A00021F097FFE8CF6D98E8CF31966D9885E001
:1004B0008A95F1F700006C98659918C085E08A95D7
:1004C000F1F700006C9A749885E08A95F1F70000C6
:1004D000E417F50769F66C9885E08A95F1F7000056
:1004E0006D9885E08A95F1F70000089586E791E020
:1004F0000E948204FFCF0F931F93CF93DF93082FA7
:10050000EB01142F0E94600187E013C06D9895E005
:100510009A95F1F700006C9895E09A95F1F7000034
:100520006C9A749895E09A95F1F70000000F81504D
:1005300029F006FDEBCF6D9A7598E9CF6D9885E0AF
:100540008A95F1F700006C9895E09A95F1F7000014
:100550006C9A749885E08A95F1F700006D9895E0A3
:100560009A95F1F700006C98659B05C08EE791E0C5
:100570000E948204FFCF85E08A95F1F700006C9A13
:10058000749895E09A95F1F700006D9885E08A954A
:10059000F1F700001123B1F12FEF210F30E02F5FB1
:1005A0003F4F2C0F3D1F98E08881880F88836C98FF
:1005B00085E08A95F1F70000659B03C08881816022
:1005C000888385E08A95F1F700006C9A749885E03D
:1005D0008A95F1F70000915039F76D9A759895E07A
:1005E0009A95F1F700006C9885E08A95F1F7000084
:1005F0006C9A749895E09A95F1F7000021962C1763
:100600003D0789F695E09A95F1F700006C9885E032
:100610008A95F1F700006D9895E09A95F1F7000042
:10062000DF91CF911F910F910895CF93DF931F9288
:10063000CDB7DEB7498340E00E94A10161E0CE0161
:1006400001960E942E020F90DF91CF9108951F9383
:10065000CF93DF931F92CDB7DEB7182F41E00E94F2
:10066000A10141E0BE016F5F7F4F812F0E947B029D
:1006700089810F90DF91CF911F91089561E08CE106
:100680000C94270363E08CE10C94270365E08CE174
:100690000C9427038AE08A95F1F700C0449A8AE017
:1006A0008A95F1F700C044988AE08A95F1F700C076
:1006B0000895F89482B98AE08A95F1F700C0449AC7
:1006C0008AE08A95F1F700C044988AE08A95F1F7AC
:1006D00000C0789408958F98F89482B98AE08A953A
:1006E000F1F700C0449A8AE08A95F1F700C0449877
:1006F0008AE08A95F1F700C0789408958F9AF8946B
:1007000082B98AE08A95F1F700C0449A8AE08A9516
:10071000F1F700C044988AE08A95F1F700C0789418
:100720000895803110F4623008F0089590E4699FD4
:10073000800D112480588F98F89482B98AE08A95A8
:10074000F1F700C0449A9AE09A95F1F700C04498F6
:100750008AE08A95F1F700C0789495EC9A95F1F7C4
:10076000000008953C9A879A8FEF81B98FE19EE44B
:100770000197F1F700C000008F98F89488E382B9E0
:100780009AE09A95F1F700C0449AEAE0EA95F1F709
:1007900000C04498FAE0FA95F1F700C07894EFE7CA
:1007A000F2E03197F1F700C000008F98F89482B919
:1007B000FAE0FA95F1F700C0449A9AE09A95F1F7B9
:1007C00000C04498EAE0EA95F1F700C07894EFE7BA
:1007D000F2E03197F1F700C000008F98F89482B9E9
:1007E000FAE0FA95F1F700C0449A9AE09A95F1F789
:1007F00000C04498EAE0EA95F1F700C07894EFE78A
:10080000F2E03197F1F700C000008F98F89498E07B
:1008100092B9FAE0FA95F1F700C0449A9AE09A95F5
:10082000F1F700C04498EAE0EA95F1F700C0789447
:10083000EFE7F2E03197F1F700C000008F98F894ED
:1008400091E092B9FAE0FA95F1F700C0449A9AE083
:100850009A95F1F700C04498EAE0EA95F1F700C0F4
:100860007894EFE7FEE33197F1F700C000008F982E
:10087000F89496E092B9FAE0FA95F1F700C0449A3C
:100880009AE09A95F1F700C04498EAE0EA95F1F70A
:1008900000C07894EFE7F2E03197F1F700C0000074
:1008A0008F98F89482B9FAE0FA95F1F700C0449A6B
:1008B0008AE08A95F1F700C044989AE09A95F1F79A
:1008C00000C07894EFE8F1E03197F1F700C0000044
:1008D0008F98F8948CE082B9FAE0FA95F1F700C0AD
:1008E000449A8AE08A95F1F700C044989AE09A9574
:1008F000F1F700C07894EFE8F1E03197F1F700C02C
:1009000000000895DC019C91992301F120E08F9A69
:10091000F89492B98AE08A95F1F700C0449A9AE077
:100920009A95F1F700C044988AE08A95F1F700C0E3
:1009300078948FE792E00197F1F700C000002F5FF5
:10094000FD01E20FF11D90819111E1CF08951F93F8
:10095000CF93DF93FC01892B09F466C045E011E0D9
:100960002FE037E2E9012196CF01BE010E94B807CE
:1009700061111DC02E173F0708F052C01123A9F1C5
:1009800011E0CF01BE010E94B807FC01ADECBCEC48
:100990000E94E6079C013695279536952795369552
:1009A00027954150F9F6DF91CF911F9108952E17A9
:1009B0003F07D8F0605D8F9AF89462B99AE09A95F3
:1009C000F1F700C0449A8AE08A95F1F700C0449894
:1009D0009AE09A95F1F700C078948FE792E001973A
:1009E000F1F700C0000010E0D1CF605D8F9AF8945D
:1009F00062B99AE09A95F1F700C0449A8AE08A9524
:100A0000F1F700C044989AE09A95F1F700C0789405
:100A10008FE792E00197F1F700C0000010E0B1CF3E
:100A2000112341F211E0B2CF8F9AF89480E382B99A
:100A30008AE08A95F1F700C0449A9AE09A95F1F716
:100A400000C044988AE08A95F1F700C078948FE757
:100A500092E00197F1F700C00000DF91CF911F9164
:100A600008958F98F89481E082B98AE08A95F1F729
:100A700000C0449A9AE09A95F1F700C044988AE041
:100A80008A95F1F700C078948FE79EE30197F1F71C
:100A900000C0000008955D9A5C980895262F3FEFEE
:100AA00081110EC06303C001112464E670E00E944E
:100AB000CC076093B30012169CF45C9A5D9808957D
:100AC0006303C001112464E670E00E94CC0767BD97
:100AD00012161CF45E9A5F9808955F9A5E980895C6
:100AE0000C944B05CF93DF93C3EBD0E018820E94A8
:100AF0004B0517BC5F9A5E9884B1806984B98AB14E
:100B0000806F8AB9E0EBF0E0808188668083808125
:100B10008260808384B5886684BD84B5826084BD2C
:100B20008AE087BD8883DF91CF9108955C9A5D98B4
:100B30002C9A5F9A5E982F9A08951F920F920FB683
:100B40000F9211242F933F934F935F936F937F9353
:100B50008F939F93EF93FF9380918801409188003A
:100B60005091890080FD30C08695E82FF0E0EE0FAF
:100B7000FF1FEF56FE4F20813181240F351F309328
:100B800089002093880048B121E030E0B90102C01B
:100B9000660F771F8A95E2F7CB01842B88B9809185
:100BA00088018F5F877080938801FF91EF919F91FB
:100BB0008F917F916F915F914F913F912F910F9006
:100BC0000FBE0F901F9018958695E82FF0E0EE0F5E
:100BD000FF1FE757FE4F20813181240F351F3093CF
:100BE00089002093880048B121E030E0B90102C0BB
:100BF000660F771F8A95E2F7CB018095842388B929
:100C0000CECF90E02AE0629FB00111246C53764F62
:100C1000880F991FFC01EF56FE4F71836083FC0122
:100C2000E757FE4F24ED30E3261B370B318320833B
:100C30000895A1E9B1E024EC39E011963C932E939C
:100C4000E9E8F1E080E197E29183808313963C9399
:100C50002E9312979383828315963C932E93149729
:100C60009583848317963C932E9316979783868358
:100C700087B18F6087B9E1E8F0E0108280818260FF
:100C80008083EFE6F0E0808182608083789408952D
:100C90008CB18095881F8827881F0895482F50E0C1
:100CA0004E30510510F080E00895FA01E25DFF4FEB
:100CB0000C94E00723B130E08950A90102C055959A
:100CC00047958A95E2F7CA018170089583B18695A8
:100CD000817008952CB130E0A90102C05595479567
:100CE0008A95E2F7CA018170089522B330E08F5FE0
:100CF000A90102C0559547958A95E2F7CA0181700E
:100D000008958CB186FB882780F9089523B1E3CF3D
:100D100026B130E08250A90102C0559547958A95C9
:100D2000E2F7CA018170089583B181700895962F0A
:100D3000482F50E04E30510540F4FA01E45CFF4F7B
:100D40000C94E007611164C02198089544B1895062
:100D500021E030E0B90102C0660F771F8A95E2F703
:100D60009923F1F1CB01842B84B908954DB121E091
:100D700030E0B90102C0660F771F8A95E2F7992328
:100D800009F43FC0CB01842B8DB9089543B38F5F25
:100D900021E030E0B90102C0660F771F8A95E2F7C3
:100DA000992329F1CB01842B83BB08956623E9F0B5
:100DB0006E9A089547B1825021E030E0B90102C037
:100DC000660F771F8A95E2F79923B1F0CB01842B48
:100DD00087B9089544B1BCCF6623C1F0209A089525
:100DE000CB018095842384B908956E980895CB0132
:100DF0008095842383BB0895CB018095842387B994
:100E00000895CB01809584238DB908952098089585
:100E1000219A0895962F482F50E04E30510540F406
:100E2000FA01E65BFF4F0C94E007611164C029985A
:100E3000089545B1895021E030E0B90102C0660F44
:100E4000771F8A95E2F79923F1F1CB01842B85B9BD
:100E500008954EB121E030E0B90102C0660F771F5E
:100E60008A95E2F7992309F43FC0CB01842B8EB910
:100E7000089544B38F5F21E030E0B90102C0660FEE
:100E8000771F8A95E2F7992329F1CB01842B84BB44
:100E900008956623E9F0769A089548B1825021E0DA
:100EA00030E0B90102C0660F771F8A95E2F79923F7
:100EB000B1F0CB01842B88B9089545B1BCCF66232E
:100EC000C1F0289A0895CB018095842385B90895AF
:100ED00076980895CB018095842384BB0895CB0137
:100EE0008095842388B90895CB01809584238EB999
:100EF000089528980895299A0895811104C06130B1
:100F000031F0A0980895613021F0A1980895A09A39
:100F10000895A19A0895882311F0A19A0895A09A9E
:100F20000895882311F0A1980895A0980895529AE1
:100F300083B3836083BB779A0E943F010E94B20310
:100F40000E9419060E94720541E06AE28CE10E944B
:100F500015032FEF81EE94E0215080409040E1F79F
:100F600000C000000C947F010E9497070E94A2001D
:100F7000AA1BBB1B51E107C0AA1FBB1FA617B707BF
:100F800010F0A61BB70B881F991F5A95A9F78095DB
:100F90009095BC01CD01089597FB072E16F400949F
:100FA00007D077FD09D00E94B80707FC05D03EF4B2
:100FB000909581959F4F0895709561957F4F089505
:100FC000EE0FFF1F0590F491E02D0994A29FB00150
:100FD000B39FC001A39F700D811D1124911DB29F6D
:0E0FE000700D811D1124911D0895F894FFCF0E
:100FEE00202020202020202020416E67656C696B18
:100FFE00612043616E6574652000000000000000F2
:10100E0000000000000000000000000000000000D2
:10101E0000002020202020202020202043687269FC
:10102E007374696E652043686F69200000000000CC
:10103E0000000000000000000000000000000000A2
:10104E0000000000416E67656C696B61006164644D
:10105E00724E41434B0077725F4E41434B007265B7
:08106E0061644E41434B000098
:00000001FF
